{
  "_format": "hh-sol-artifact-1",
  "contractName": "NFT",
  "sourceName": "contracts/NFT.sol",
  "abi": [
    {
      "inputs": [],
      "stateMutability": "nonpayable",
      "type": "constructor"
    },
    {
      "inputs": [
        {
          "internalType": "address",
          "name": "sender",
          "type": "address"
        },
        {
          "internalType": "uint256",
          "name": "tokenId",
          "type": "uint256"
        },
        {
          "internalType": "address",
          "name": "owner",
          "type": "address"
        }
      ],
      "name": "ERC721IncorrectOwner",
      "type": "error"
    },
    {
      "inputs": [
        {
          "internalType": "address",
          "name": "operator",
          "type": "address"
        },
        {
          "internalType": "uint256",
          "name": "tokenId",
          "type": "uint256"
        }
      ],
      "name": "ERC721InsufficientApproval",
      "type": "error"
    },
    {
      "inputs": [
        {
          "internalType": "address",
          "name": "approver",
          "type": "address"
        }
      ],
      "name": "ERC721InvalidApprover",
      "type": "error"
    },
    {
      "inputs": [
        {
          "internalType": "address",
          "name": "operator",
          "type": "address"
        }
      ],
      "name": "ERC721InvalidOperator",
      "type": "error"
    },
    {
      "inputs": [
        {
          "internalType": "address",
          "name": "owner",
          "type": "address"
        }
      ],
      "name": "ERC721InvalidOwner",
      "type": "error"
    },
    {
      "inputs": [
        {
          "internalType": "address",
          "name": "receiver",
          "type": "address"
        }
      ],
      "name": "ERC721InvalidReceiver",
      "type": "error"
    },
    {
      "inputs": [
        {
          "internalType": "address",
          "name": "sender",
          "type": "address"
        }
      ],
      "name": "ERC721InvalidSender",
      "type": "error"
    },
    {
      "inputs": [
        {
          "internalType": "uint256",
          "name": "tokenId",
          "type": "uint256"
        }
      ],
      "name": "ERC721NonexistentToken",
      "type": "error"
    },
    {
      "anonymous": false,
      "inputs": [
        {
          "indexed": true,
          "internalType": "address",
          "name": "owner",
          "type": "address"
        },
        {
          "indexed": true,
          "internalType": "address",
          "name": "approved",
          "type": "address"
        },
        {
          "indexed": true,
          "internalType": "uint256",
          "name": "tokenId",
          "type": "uint256"
        }
      ],
      "name": "Approval",
      "type": "event"
    },
    {
      "anonymous": false,
      "inputs": [
        {
          "indexed": true,
          "internalType": "address",
          "name": "owner",
          "type": "address"
        },
        {
          "indexed": true,
          "internalType": "address",
          "name": "operator",
          "type": "address"
        },
        {
          "indexed": false,
          "internalType": "bool",
          "name": "approved",
          "type": "bool"
        }
      ],
      "name": "ApprovalForAll",
      "type": "event"
    },
    {
      "anonymous": false,
      "inputs": [
        {
          "indexed": true,
          "internalType": "address",
          "name": "from",
          "type": "address"
        },
        {
          "indexed": true,
          "internalType": "address",
          "name": "to",
          "type": "address"
        },
        {
          "indexed": true,
          "internalType": "uint256",
          "name": "tokenId",
          "type": "uint256"
        }
      ],
      "name": "Transfer",
      "type": "event"
    },
    {
      "inputs": [
        {
          "internalType": "address",
          "name": "to",
          "type": "address"
        },
        {
          "internalType": "uint256",
          "name": "tokenId",
          "type": "uint256"
        }
      ],
      "name": "approve",
      "outputs": [],
      "stateMutability": "nonpayable",
      "type": "function"
    },
    {
      "inputs": [
        {
          "internalType": "address",
          "name": "owner",
          "type": "address"
        }
      ],
      "name": "balanceOf",
      "outputs": [
        {
          "internalType": "uint256",
          "name": "",
          "type": "uint256"
        }
      ],
      "stateMutability": "view",
      "type": "function"
    },
    {
      "inputs": [],
      "name": "currentTokenId",
      "outputs": [
        {
          "internalType": "uint256",
          "name": "",
          "type": "uint256"
        }
      ],
      "stateMutability": "view",
      "type": "function"
    },
    {
      "inputs": [
        {
          "internalType": "uint256",
          "name": "tokenId",
          "type": "uint256"
        }
      ],
      "name": "getApproved",
      "outputs": [
        {
          "internalType": "address",
          "name": "",
          "type": "address"
        }
      ],
      "stateMutability": "view",
      "type": "function"
    },
    {
      "inputs": [
        {
          "internalType": "address",
          "name": "owner",
          "type": "address"
        },
        {
          "internalType": "address",
          "name": "operator",
          "type": "address"
        }
      ],
      "name": "isApprovedForAll",
      "outputs": [
        {
          "internalType": "bool",
          "name": "",
          "type": "bool"
        }
      ],
      "stateMutability": "view",
      "type": "function"
    },
    {
      "inputs": [
        {
          "internalType": "address",
          "name": "recipient",
          "type": "address"
        }
      ],
      "name": "mint",
      "outputs": [
        {
          "internalType": "uint256",
          "name": "",
          "type": "uint256"
        }
      ],
      "stateMutability": "payable",
      "type": "function"
    },
    {
      "inputs": [],
      "name": "name",
      "outputs": [
        {
          "internalType": "string",
          "name": "",
          "type": "string"
        }
      ],
      "stateMutability": "view",
      "type": "function"
    },
    {
      "inputs": [
        {
          "internalType": "uint256",
          "name": "tokenId",
          "type": "uint256"
        }
      ],
      "name": "ownerOf",
      "outputs": [
        {
          "internalType": "address",
          "name": "",
          "type": "address"
        }
      ],
      "stateMutability": "view",
      "type": "function"
    },
    {
      "inputs": [
        {
          "internalType": "address",
          "name": "from",
          "type": "address"
        },
        {
          "internalType": "address",
          "name": "to",
          "type": "address"
        },
        {
          "internalType": "uint256",
          "name": "tokenId",
          "type": "uint256"
        }
      ],
      "name": "safeTransferFrom",
      "outputs": [],
      "stateMutability": "nonpayable",
      "type": "function"
    },
    {
      "inputs": [
        {
          "internalType": "address",
          "name": "from",
          "type": "address"
        },
        {
          "internalType": "address",
          "name": "to",
          "type": "address"
        },
        {
          "internalType": "uint256",
          "name": "tokenId",
          "type": "uint256"
        },
        {
          "internalType": "bytes",
          "name": "data",
          "type": "bytes"
        }
      ],
      "name": "safeTransferFrom",
      "outputs": [],
      "stateMutability": "nonpayable",
      "type": "function"
    },
    {
      "inputs": [
        {
          "internalType": "address",
          "name": "operator",
          "type": "address"
        },
        {
          "internalType": "bool",
          "name": "approved",
          "type": "bool"
        }
      ],
      "name": "setApprovalForAll",
      "outputs": [],
      "stateMutability": "nonpayable",
      "type": "function"
    },
    {
      "inputs": [
        {
          "internalType": "bytes4",
          "name": "interfaceId",
          "type": "bytes4"
        }
      ],
      "name": "supportsInterface",
      "outputs": [
        {
          "internalType": "bool",
          "name": "",
          "type": "bool"
        }
      ],
      "stateMutability": "view",
      "type": "function"
    },
    {
      "inputs": [],
      "name": "symbol",
      "outputs": [
        {
          "internalType": "string",
          "name": "",
          "type": "string"
        }
      ],
      "stateMutability": "view",
      "type": "function"
    },
    {
      "inputs": [
        {
          "internalType": "uint256",
          "name": "tokenId",
          "type": "uint256"
        }
      ],
      "name": "tokenURI",
      "outputs": [
        {
          "internalType": "string",
          "name": "",
          "type": "string"
        }
      ],
      "stateMutability": "view",
      "type": "function"
    },
    {
      "inputs": [
        {
          "internalType": "address",
          "name": "from",
          "type": "address"
        },
        {
          "internalType": "address",
          "name": "to",
          "type": "address"
        },
        {
          "internalType": "uint256",
          "name": "tokenId",
          "type": "uint256"
        }
      ],
      "name": "transferFrom",
      "outputs": [],
      "stateMutability": "nonpayable",
      "type": "function"
    }
  ],
  "bytecode": "0x60806040523480156200001157600080fd5b506040518060400160405280600881526020017f4e4654204e616d650000000000000000000000000000000000000000000000008152506040518060400160405280600381526020017f4e4654000000000000000000000000000000000000000000000000000000000081525081600090816200008f919062000324565b508060019081620000a1919062000324565b5050506200040b565b600081519050919050565b7f4e487b7100000000000000000000000000000000000000000000000000000000600052604160045260246000fd5b7f4e487b7100000000000000000000000000000000000000000000000000000000600052602260045260246000fd5b600060028204905060018216806200012c57607f821691505b602082108103620001425762000141620000e4565b5b50919050565b60008190508160005260206000209050919050565b60006020601f8301049050919050565b600082821b905092915050565b600060088302620001ac7fffffffffffffffffffffffffffffffffffffffffffffffffffffffffffffffff826200016d565b620001b886836200016d565b95508019841693508086168417925050509392505050565b6000819050919050565b6000819050919050565b600062000205620001ff620001f984620001d0565b620001da565b620001d0565b9050919050565b6000819050919050565b6200022183620001e4565b6200023962000230826200020c565b8484546200017a565b825550505050565b600090565b6200025062000241565b6200025d81848462000216565b505050565b5b8181101562000285576200027960008262000246565b60018101905062000263565b5050565b601f821115620002d4576200029e8162000148565b620002a9846200015d565b81016020851015620002b9578190505b620002d1620002c8856200015d565b83018262000262565b50505b505050565b600082821c905092915050565b6000620002f960001984600802620002d9565b1980831691505092915050565b6000620003148383620002e6565b9150826002028217905092915050565b6200032f82620000aa565b67ffffffffffffffff8111156200034b576200034a620000b5565b5b62000357825462000113565b6200036482828562000289565b600060209050601f8311600181146200039c576000841562000387578287015190505b62000393858262000306565b86555062000403565b601f198416620003ac8662000148565b60005b82811015620003d657848901518255600182019150602085019450602081019050620003af565b86831015620003f65784890151620003f2601f891682620002e6565b8355505b6001600288020188555050505b505050505050565b611f75806200041b6000396000f3fe6080604052600436106100e75760003560e01c80636352211e1161008a578063a22cb46511610059578063a22cb4651461030c578063b88d4fde14610335578063c87b56dd1461035e578063e985e9c51461039b576100e7565b80636352211e146102375780636a6278421461027457806370a08231146102a457806395d89b41146102e1576100e7565b8063081812fc116100c6578063081812fc1461017f578063095ea7b3146101bc57806323b872dd146101e557806342842e0e1461020e576100e7565b80629a9b7b146100ec57806301ffc9a71461011757806306fdde0314610154575b600080fd5b3480156100f857600080fd5b506101016103d8565b60405161010e91906116f5565b60405180910390f35b34801561012357600080fd5b5061013e6004803603810190610139919061177c565b6103de565b60405161014b91906117c4565b60405180910390f35b34801561016057600080fd5b506101696104c0565b604051610176919061186f565b60405180910390f35b34801561018b57600080fd5b506101a660048036038101906101a191906118bd565b610552565b6040516101b3919061192b565b60405180910390f35b3480156101c857600080fd5b506101e360048036038101906101de9190611972565b61056e565b005b3480156101f157600080fd5b5061020c600480360381019061020791906119b2565b610584565b005b34801561021a57600080fd5b50610235600480360381019061023091906119b2565b610686565b005b34801561024357600080fd5b5061025e600480360381019061025991906118bd565b6106a6565b60405161026b919061192b565b60405180910390f35b61028e60048036038101906102899190611a05565b6106b8565b60405161029b91906116f5565b60405180910390f35b3480156102b057600080fd5b506102cb60048036038101906102c69190611a05565b6106e5565b6040516102d891906116f5565b60405180910390f35b3480156102ed57600080fd5b506102f661079f565b604051610303919061186f565b60405180910390f35b34801561031857600080fd5b50610333600480360381019061032e9190611a5e565b610831565b005b34801561034157600080fd5b5061035c60048036038101906103579190611bd3565b610847565b005b34801561036a57600080fd5b50610385600480360381019061038091906118bd565b610864565b604051610392919061186f565b60405180910390f35b3480156103a757600080fd5b506103c260048036038101906103bd9190611c56565b6108cd565b6040516103cf91906117c4565b60405180910390f35b60065481565b60007f80ac58cd000000000000000000000000000000000000000000000000000000007bffffffffffffffffffffffffffffffffffffffffffffffffffffffff1916827bffffffffffffffffffffffffffffffffffffffffffffffffffffffff191614806104a957507f5b5e139f000000000000000000000000000000000000000000000000000000007bffffffffffffffffffffffffffffffffffffffffffffffffffffffff1916827bffffffffffffffffffffffffffffffffffffffffffffffffffffffff1916145b806104b957506104b882610961565b5b9050919050565b6060600080546104cf90611cc5565b80601f01602080910402602001604051908101604052809291908181526020018280546104fb90611cc5565b80156105485780601f1061051d57610100808354040283529160200191610548565b820191906000526020600020905b81548152906001019060200180831161052b57829003601f168201915b5050505050905090565b600061055d826109cb565b5061056782610a53565b9050919050565b610580828261057b610a90565b610a98565b5050565b600073ffffffffffffffffffffffffffffffffffffffff168273ffffffffffffffffffffffffffffffffffffffff16036105f65760006040517f64a0ae920000000000000000000000000000000000000000000000000000000081526004016105ed919061192b565b60405180910390fd5b600061060a8383610605610a90565b610aaa565b90508373ffffffffffffffffffffffffffffffffffffffff168173ffffffffffffffffffffffffffffffffffffffff1614610680578382826040517f64283d7b00000000000000000000000000000000000000000000000000000000815260040161067793929190611cf6565b60405180910390fd5b50505050565b6106a183838360405180602001604052806000815250610847565b505050565b60006106b1826109cb565b9050919050565b6000806006600081546106ca90611d5c565b91905081905590506106dc8382610cc4565b80915050919050565b60008073ffffffffffffffffffffffffffffffffffffffff168273ffffffffffffffffffffffffffffffffffffffff16036107585760006040517f89c62b6400000000000000000000000000000000000000000000000000000000815260040161074f919061192b565b60405180910390fd5b600360008373ffffffffffffffffffffffffffffffffffffffff1673ffffffffffffffffffffffffffffffffffffffff168152602001908152602001600020549050919050565b6060600180546107ae90611cc5565b80601f01602080910402602001604051908101604052809291908181526020018280546107da90611cc5565b80156108275780601f106107fc57610100808354040283529160200191610827565b820191906000526020600020905b81548152906001019060200180831161080a57829003601f168201915b5050505050905090565b61084361083c610a90565b8383610ce2565b5050565b610852848484610584565b61085e84848484610e51565b50505050565b606061086f826109cb565b50600061087a611008565b9050600081511161089a57604051806020016040528060008152506108c5565b806108a48461101f565b6040516020016108b5929190611de0565b6040516020818303038152906040525b915050919050565b6000600560008473ffffffffffffffffffffffffffffffffffffffff1673ffffffffffffffffffffffffffffffffffffffff16815260200190815260200160002060008373ffffffffffffffffffffffffffffffffffffffff1673ffffffffffffffffffffffffffffffffffffffff16815260200190815260200160002060009054906101000a900460ff16905092915050565b60007f01ffc9a7000000000000000000000000000000000000000000000000000000007bffffffffffffffffffffffffffffffffffffffffffffffffffffffff1916827bffffffffffffffffffffffffffffffffffffffffffffffffffffffff1916149050919050565b6000806109d7836110ed565b9050600073ffffffffffffffffffffffffffffffffffffffff168173ffffffffffffffffffffffffffffffffffffffff1603610a4a57826040517f7e273289000000000000000000000000000000000000000000000000000000008152600401610a4191906116f5565b60405180910390fd5b80915050919050565b60006004600083815260200190815260200160002060009054906101000a900473ffffffffffffffffffffffffffffffffffffffff169050919050565b600033905090565b610aa5838383600161112a565b505050565b600080610ab6846110ed565b9050600073ffffffffffffffffffffffffffffffffffffffff168373ffffffffffffffffffffffffffffffffffffffff1614610af857610af78184866112ef565b5b600073ffffffffffffffffffffffffffffffffffffffff168173ffffffffffffffffffffffffffffffffffffffff1614610b8957610b3a60008560008061112a565b6001600360008373ffffffffffffffffffffffffffffffffffffffff1673ffffffffffffffffffffffffffffffffffffffff168152602001908152602001600020600082825403925050819055505b600073ffffffffffffffffffffffffffffffffffffffff168573ffffffffffffffffffffffffffffffffffffffff1614610c0c576001600360008773ffffffffffffffffffffffffffffffffffffffff1673ffffffffffffffffffffffffffffffffffffffff168152602001908152602001600020600082825401925050819055505b846002600086815260200190815260200160002060006101000a81548173ffffffffffffffffffffffffffffffffffffffff021916908373ffffffffffffffffffffffffffffffffffffffff160217905550838573ffffffffffffffffffffffffffffffffffffffff168273ffffffffffffffffffffffffffffffffffffffff167fddf252ad1be2c89b69c2b068fc378daa952ba7f163c4a11628f55a4df523b3ef60405160405180910390a4809150509392505050565b610cde8282604051806020016040528060008152506113b3565b5050565b600073ffffffffffffffffffffffffffffffffffffffff168273ffffffffffffffffffffffffffffffffffffffff1603610d5357816040517f5b08ba18000000000000000000000000000000000000000000000000000000008152600401610d4a919061192b565b60405180910390fd5b80600560008573ffffffffffffffffffffffffffffffffffffffff1673ffffffffffffffffffffffffffffffffffffffff16815260200190815260200160002060008473ffffffffffffffffffffffffffffffffffffffff1673ffffffffffffffffffffffffffffffffffffffff16815260200190815260200160002060006101000a81548160ff0219169083151502179055508173ffffffffffffffffffffffffffffffffffffffff168373ffffffffffffffffffffffffffffffffffffffff167f17307eab39ab6107e8899845ad3d59bd9653f200f220920489ca2b5937696c3183604051610e4491906117c4565b60405180910390a3505050565b60008373ffffffffffffffffffffffffffffffffffffffff163b1115611002578273ffffffffffffffffffffffffffffffffffffffff1663150b7a02610e95610a90565b8685856040518563ffffffff1660e01b8152600401610eb79493929190611e59565b6020604051808303816000875af1925050508015610ef357506040513d601f19601f82011682018060405250810190610ef09190611eba565b60015b610f77573d8060008114610f23576040519150601f19603f3d011682016040523d82523d6000602084013e610f28565b606091505b506000815103610f6f57836040517f64a0ae92000000000000000000000000000000000000000000000000000000008152600401610f66919061192b565b60405180910390fd5b805181602001fd5b63150b7a0260e01b7bffffffffffffffffffffffffffffffffffffffffffffffffffffffff1916817bffffffffffffffffffffffffffffffffffffffffffffffffffffffff19161461100057836040517f64a0ae92000000000000000000000000000000000000000000000000000000008152600401610ff7919061192b565b60405180910390fd5b505b50505050565b606060405180602001604052806000815250905090565b60606000600161102e846113cf565b01905060008167ffffffffffffffff81111561104d5761104c611aa8565b5b6040519080825280601f01601f19166020018201604052801561107f5781602001600182028036833780820191505090505b509050600082602001820190505b6001156110e2578080600190039150507f3031323334353637383961626364656600000000000000000000000000000000600a86061a8153600a85816110d6576110d5611ee7565b5b0494506000850361108d575b819350505050919050565b60006002600083815260200190815260200160002060009054906101000a900473ffffffffffffffffffffffffffffffffffffffff169050919050565b80806111635750600073ffffffffffffffffffffffffffffffffffffffff168273ffffffffffffffffffffffffffffffffffffffff1614155b15611297576000611173846109cb565b9050600073ffffffffffffffffffffffffffffffffffffffff168373ffffffffffffffffffffffffffffffffffffffff16141580156111de57508273ffffffffffffffffffffffffffffffffffffffff168173ffffffffffffffffffffffffffffffffffffffff1614155b80156111f157506111ef81846108cd565b155b1561123357826040517fa9fbf51f00000000000000000000000000000000000000000000000000000000815260040161122a919061192b565b60405180910390fd5b811561129557838573ffffffffffffffffffffffffffffffffffffffff168273ffffffffffffffffffffffffffffffffffffffff167f8c5be1e5ebec7d5bd14f71427d1e84f3dd0314c0f7b2291e5b200ac8c7c3b92560405160405180910390a45b505b836004600085815260200190815260200160002060006101000a81548173ffffffffffffffffffffffffffffffffffffffff021916908373ffffffffffffffffffffffffffffffffffffffff16021790555050505050565b6112fa838383611522565b6113ae57600073ffffffffffffffffffffffffffffffffffffffff168373ffffffffffffffffffffffffffffffffffffffff160361136f57806040517f7e27328900000000000000000000000000000000000000000000000000000000815260040161136691906116f5565b60405180910390fd5b81816040517f177e802f0000000000000000000000000000000000000000000000000000000081526004016113a5929190611f16565b60405180910390fd5b505050565b6113bd83836115e3565b6113ca6000848484610e51565b505050565b600080600090507a184f03e93ff9f4daa797ed6e38ed64bf6a1f010000000000000000831061142d577a184f03e93ff9f4daa797ed6e38ed64bf6a1f010000000000000000838161142357611422611ee7565b5b0492506040810190505b6d04ee2d6d415b85acef8100000000831061146a576d04ee2d6d415b85acef810000000083816114605761145f611ee7565b5b0492506020810190505b662386f26fc10000831061149957662386f26fc10000838161148f5761148e611ee7565b5b0492506010810190505b6305f5e10083106114c2576305f5e10083816114b8576114b7611ee7565b5b0492506008810190505b61271083106114e75761271083816114dd576114dc611ee7565b5b0492506004810190505b6064831061150a5760648381611500576114ff611ee7565b5b0492506002810190505b600a8310611519576001810190505b80915050919050565b60008073ffffffffffffffffffffffffffffffffffffffff168373ffffffffffffffffffffffffffffffffffffffff16141580156115da57508273ffffffffffffffffffffffffffffffffffffffff168473ffffffffffffffffffffffffffffffffffffffff16148061159b575061159a84846108cd565b5b806115d957508273ffffffffffffffffffffffffffffffffffffffff166115c183610a53565b73ffffffffffffffffffffffffffffffffffffffff16145b5b90509392505050565b600073ffffffffffffffffffffffffffffffffffffffff168273ffffffffffffffffffffffffffffffffffffffff16036116555760006040517f64a0ae9200000000000000000000000000000000000000000000000000000000815260040161164c919061192b565b60405180910390fd5b600061166383836000610aaa565b9050600073ffffffffffffffffffffffffffffffffffffffff168173ffffffffffffffffffffffffffffffffffffffff16146116d75760006040517f73c6ac6e0000000000000000000000000000000000000000000000000000000081526004016116ce919061192b565b60405180910390fd5b505050565b6000819050919050565b6116ef816116dc565b82525050565b600060208201905061170a60008301846116e6565b92915050565b6000604051905090565b600080fd5b600080fd5b60007fffffffff0000000000000000000000000000000000000000000000000000000082169050919050565b61175981611724565b811461176457600080fd5b50565b60008135905061177681611750565b92915050565b6000602082840312156117925761179161171a565b5b60006117a084828501611767565b91505092915050565b60008115159050919050565b6117be816117a9565b82525050565b60006020820190506117d960008301846117b5565b92915050565b600081519050919050565b600082825260208201905092915050565b60005b838110156118195780820151818401526020810190506117fe565b60008484015250505050565b6000601f19601f8301169050919050565b6000611841826117df565b61184b81856117ea565b935061185b8185602086016117fb565b61186481611825565b840191505092915050565b600060208201905081810360008301526118898184611836565b905092915050565b61189a816116dc565b81146118a557600080fd5b50565b6000813590506118b781611891565b92915050565b6000602082840312156118d3576118d261171a565b5b60006118e1848285016118a8565b91505092915050565b600073ffffffffffffffffffffffffffffffffffffffff82169050919050565b6000611915826118ea565b9050919050565b6119258161190a565b82525050565b6000602082019050611940600083018461191c565b92915050565b61194f8161190a565b811461195a57600080fd5b50565b60008135905061196c81611946565b92915050565b600080604083850312156119895761198861171a565b5b60006119978582860161195d565b92505060206119a8858286016118a8565b9150509250929050565b6000806000606084860312156119cb576119ca61171a565b5b60006119d98682870161195d565b93505060206119ea8682870161195d565b92505060406119fb868287016118a8565b9150509250925092565b600060208284031215611a1b57611a1a61171a565b5b6000611a298482850161195d565b91505092915050565b611a3b816117a9565b8114611a4657600080fd5b50565b600081359050611a5881611a32565b92915050565b60008060408385031215611a7557611a7461171a565b5b6000611a838582860161195d565b9250506020611a9485828601611a49565b9150509250929050565b600080fd5b600080fd5b7f4e487b7100000000000000000000000000000000000000000000000000000000600052604160045260246000fd5b611ae082611825565b810181811067ffffffffffffffff82111715611aff57611afe611aa8565b5b80604052505050565b6000611b12611710565b9050611b1e8282611ad7565b919050565b600067ffffffffffffffff821115611b3e57611b3d611aa8565b5b611b4782611825565b9050602081019050919050565b82818337600083830152505050565b6000611b76611b7184611b23565b611b08565b905082815260208101848484011115611b9257611b91611aa3565b5b611b9d848285611b54565b509392505050565b600082601f830112611bba57611bb9611a9e565b5b8135611bca848260208601611b63565b91505092915050565b60008060008060808587031215611bed57611bec61171a565b5b6000611bfb8782880161195d565b9450506020611c0c8782880161195d565b9350506040611c1d878288016118a8565b925050606085013567ffffffffffffffff811115611c3e57611c3d61171f565b5b611c4a87828801611ba5565b91505092959194509250565b60008060408385031215611c6d57611c6c61171a565b5b6000611c7b8582860161195d565b9250506020611c8c8582860161195d565b9150509250929050565b7f4e487b7100000000000000000000000000000000000000000000000000000000600052602260045260246000fd5b60006002820490506001821680611cdd57607f821691505b602082108103611cf057611cef611c96565b5b50919050565b6000606082019050611d0b600083018661191c565b611d1860208301856116e6565b611d25604083018461191c565b949350505050565b7f4e487b7100000000000000000000000000000000000000000000000000000000600052601160045260246000fd5b6000611d67826116dc565b91507fffffffffffffffffffffffffffffffffffffffffffffffffffffffffffffffff8203611d9957611d98611d2d565b5b600182019050919050565b600081905092915050565b6000611dba826117df565b611dc48185611da4565b9350611dd48185602086016117fb565b80840191505092915050565b6000611dec8285611daf565b9150611df88284611daf565b91508190509392505050565b600081519050919050565b600082825260208201905092915050565b6000611e2b82611e04565b611e358185611e0f565b9350611e458185602086016117fb565b611e4e81611825565b840191505092915050565b6000608082019050611e6e600083018761191c565b611e7b602083018661191c565b611e8860408301856116e6565b8181036060830152611e9a8184611e20565b905095945050505050565b600081519050611eb481611750565b92915050565b600060208284031215611ed057611ecf61171a565b5b6000611ede84828501611ea5565b91505092915050565b7f4e487b7100000000000000000000000000000000000000000000000000000000600052601260045260246000fd5b6000604082019050611f2b600083018561191c565b611f3860208301846116e6565b939250505056fea2646970667358221220d5286337c74acf125ffb73594776985d000e260d3c6f597fe0359cd6365f544864736f6c63430008170033",
  "linkReferences": {},
  "deployedLinkReferences": {}
}